:020000040800F2
:10000000C006002001010008C72E0008A127000833
:10001000C52E00084F0B0008453300080000000003
:10002000000000000000000000000000CB2E0008CF
:10003000910C000800000000C92E0008CD2E000819
:100040001B0100081B0100081B0100081B01000820
:100050001B0100081B0100081B0100081B01000810
:100060001B0100081B0100081B0100081B01000800
:100070001B0100081B0100081B0100081B010008F0
:100080001B0100081B0100081B0100081B010008E0
:100090001B0100081B0100081B0100081B010008D0
:1000A0001B0100081B0100081B0100081B010008C0
:1000B000212F00081B0100081B0100081B0100087C
:1000C0001B0100081B0100081B0100081B010008A0
:1000D0001B010008393300081B0100081B01000840
:1000E0001B0100081B0100081B010008DFF80CD0F1
:1000F00000F0CAFC004800476D550008C00600200B
:100100000648804706480047FEE7FEE7FEE7FEE7B1
:10011000FEE7FEE7FEE7FEE7FEE7FEE71F2F00082B
:10012000ED0000082DE9F0410024061B254671F181
:10013000000605DA01240027D0EB070067EB010178
:10014000161E73F1000605DA0027D2EB070201251F
:1001500067EB030300F082FB86460E4617469C467B
:10016000AC4204D00025D0EB050E65EB010624B1AE
:100170000020D2EB000760EB030C704631463A4694
:100180006346BDE8F081202A04DB203A21FA02F020
:100190000021704721FA02F3D040C2F120029140C1
:1001A000084319467047D2B201E000F8012B491EFE
:1001B000FBD270470022F6E710B513460A46044604
:1001C0001946FFF7F0FF204610BD30B50446002069
:1001D000034600E05B1C934203D2E05CCD5C401B15
:1001E000F8D030BDF0B480EA0102D40F4200B2EB87
:1001F000410F02D20246084611464A0042D0C30DC2
:10020000DDB2C1F3C752AD1A202D35DAC1F31601A4
:1002100041F4000204B15242C5F1200602FA06F18F
:100220002A411044B3EBD05F23D0C4B1012DA0EB21
:10023000C35009DCF0BC4FF0004202EAC352DBB20B
:1002400000F5000000F065BB400000F1807000EB9D
:10025000C350A0F1807040EAD170490009E049081C
:1002600041EAC071A0EBC35000F50000400800EB6C
:10027000C350F0BC00F044BB6142012202EB4101DB
:10028000001BF6E7F0BC704781F00041AAE780F060
:100290000040A7E780EA010210B502F000434000E9
:1002A00022D04A001FD0010E01EB1261C0F35600AC
:1002B000C2F3560240F4000042F40002A0FB022008
:1002C00000047F39140400D0401C50EA124001D4CD
:1002D0004000491EC2B20C0604EBD010401C40087E
:1002E000802A02D003E0002010BD20F00100002988
:1002F00000DA0020184310BD30B480EA010202F099
:10030000004530F0004221F0004013D090B1C30D01
:10031000D40DC2F31601C0F31600E41A41F4000133
:1003200040F400027D34914201D3641C00E0490096
:10033000002C02DA30BC002070474FF4000000238C
:10034000914201D3891A034340084FEA4101F7D192
:1003500051B1914202D14FF0004105E002D24FF07D
:10036000010101E06FF0010103EBC450284430BCEF
:1003700000F0C6BA420005D0C0F3C75252429142C3
:1003800001DC0020704700EBC15070472DE9FE4FA3
:10039000804681EA0300C00F0C46009021F0004126
:1003A00023F00045B8EB0200A94105D240462146A2
:1003B00090461C460B46024623F00040104347D0AF
:1003C000270DC7F30A00C3F30A510290401A0190A7
:1003D00040286BDAC3F3130040F4801B0098924668
:1003E00020B10023D2EB030A63EB0B0B01985946B3
:1003F000C0F14002504600F062FA06460D465046F3
:100400005946019A00F06AFA10EB08006141002495
:1004100087EA115284EAE7731A4340D0009A62B324
:10042000019A012A4FEA075215DC001B61EB020119
:100430004FF0004202EA0752CDE90042001C41F5AC
:10044000801132462B4600F0A1FA03B0BDE8F08FD0
:1004500040462146F9E7001B61EB0201001C41F513
:10046000801300185B412018A2F5001747EB030129
:1004700040EAD570B6196D4111E06D084FEA3606B5
:1004800045EAC0754FEA0752001B61EB0201001CF0
:1004900041F5801149084FEA3000001951413246B8
:1004A0002B4603B0BDE8F04F00F061BA009801227E
:1004B00040000023D0EB020263EBE073009821467A
:1004C0004FEAE074B8EB000061EB0401E9E783F068
:1004D00000435BE781F0004158E72DE9FE4F81EAD8
:1004E000030404F0004421F0004100944FF0000B9D
:1004F00023F0004350EA01045ED052EA03045BD0CB
:10050000C3F30A54C1F30A552C44A4F2F334019402
:10051000A0FB0254C1F3130141F48011C3F3130390
:1005200043F4801301FB024400FB034E840A970A44
:1005300044EA815447EA8357A4FB076802958D0A71
:1005400005FB07854FEA932C04FB0C542705029DFD
:100550004FEA065847EA1637B5EB08056EEB070C6D
:10056000870E920E47EA811742EA8312A7FB020127
:10057000B6EB0B0164EB00042B0D43EA0C335E1861
:1005800044EB1C50DA465146E7FB0201C5F3130465
:100590004FEA0B3343EA14534FEA0432019C43EA17
:1005A0000603A4F10C040294009CCDE900B400F011
:1005B000EDF903B0BDE8F08F00200146F9E72DE921
:1005C000F04D81EA030404F0004B21F0004514468D
:1005D0004FF0000A23F0004150EA050220D054EA0F
:1005E00001021DD0C5F30A570246C5F31303C1F338
:1005F0001300C1F30A5640F4801543F48013A7EBAF
:100600000608101BD64608F2FD3873EB050002D32E
:1006100008F1010801E092185B41B8F1000F03DA1C
:1006200000200146BDE8F08D00204FF48011064601
:1006300084460EE0171B73EB050705D3121B63EB13
:10064000050306434CEA010C49084FEA30009218B2
:100650005B4150EA0107EDD152EA030012D082EA71
:10066000040083EA0501084305D0101BAB4106D204
:100670000122002306E000224FF0004302E06FF069
:10068000010253101AEB06004CEB085110EB0A0064
:1006900041EB0B01BDE8F04D00F069B9C10F80EAF4
:1006A000E0700844CA079623002100F032B996236F
:1006B0000022114600F02DB90EB5C10F80EAE0709E
:1006C0000844CA07002140F233438DE80E000A4671
:1006D0000B4600F05BF903B000BD00F0004220F0D3
:1006E0000040C10DC0F3160040F400007F2901DA7C
:1006F00000207047962903DCC1F19601C84001E053
:1007000096398840002AF4D04042704720F00040DB
:10071000C10DC0F3160040F400007F2901DA00206B
:100720007047962903DCC1F19601C840704796399D
:100730008840704770B5C1F30A5201F000450024AB
:10074000C1F3130140F2FF3341F480119A4201DA00
:10075000002070BD40F233439A42A2F2334203DCE0
:100760005242FFF710FD00E090402C43F1D0404290
:1007700070BD00F0004230F000400AD0C10D01F51C
:100780006071C0F3160042EA0151C20840071143EC
:10079000704700200146704730B5041E71F1000417
:1007A00004DB4FF00044404264EB0101141E73F17E
:1007B000000405DB1C464FF00043524263EB040388
:1007C0008B4208BF824230BD30B5041E71F1000477
:1007D00004DB4FF00044404264EB0101141E73F14E
:1007E000000405DB1C464FF00043524263EB040358
:1007F000994208BF904230BD01F0004330B421F06F
:10080000004150EA010206D00A0DA2F56072C1F360
:100810001301002A02DC30BC00207047440F44EA78
:10082000C104C100E01830BC00EBC25000F068B851
:1008300030B50B46014600202022012409E021FAB0
:1008400002F59D4205D303FA02F5491B04FA02F5AD
:100850002844151EA2F10102F1DC30BD2DE9F05F44
:100860000546002092469B4688460646814640241F
:100870001BE02846414647462246FFF784FC534684
:100880005A46C01A914110D311461846224600F02C
:1008900016F82D1A67EB01084F4622460120002169
:1008A00000F00DF817EB00094E41201EA4F10104E1
:1008B000DFDC484631462A464346BDE8F09F202A01
:1008C00004DB203A00FA02F1002070479140C2F1A7
:1008D000200320FA03F3194390407047202A06DBD7
:1008E000CB17203A41FA02F043EAE07306E041FAFE
:1008F00002F3D040C2F120029140084319467047EC
:100900000029A8BF7047401C490008BF20F0010023
:10091000704710B4B0FA80FC00FA0CF050EA010401
:1009200004BF10BC704749B1CCF1200421FA04F493
:1009300011FA0CF118BF012121430843A3EB0C016C
:10094000CB1D4FEA00614FEA102042BF002010BCCF
:10095000704700EBC35010440029A4BF10BC70477F
:10096000401C490008BF20F0010010BC704710B5C2
:10097000141E73F1000408DA401C41F100019218C2
:100980005B411A4301D120F0010010BD2DE9F04D6B
:1009900092469B4611B1B1FA81F202E0B0FA80F2C0
:1009A00020329046FFF78BFF04460F4640EA0A00CC
:1009B00041EA0B0153465A46084313D0114653EA05
:1009C000010019D0C8F140025046FFF7DCFB054694
:1009D0000E46504659464246FFF771FF084305D080
:1009E000012004E020463946BDE8F08D0020054393
:1009F00046EAE0762C4337430A986305E40AA0EB05
:100A000008000022FD0A44EA47540A3002D50020BB
:100A10000146E9E7010510196941DDE908450019BA
:100A20006941BDE8F04DA2E770B521F000430343F2
:100A30000CD0C1F30A550024D5EB040564EB040384
:100A4000D617AD1AB34102DB0020014670BD201855
:100A500041EB025170BDC1F30A52C1F3130140F2E0
:100A6000FF3341F480119A4202DA002001467047B8
:100A700040F233439A42A2F2334202DC5242FFF781
:100A800082BBFFF71CBF0000064C074D06E0E06884
:100A900040F0010394E8070098471034AC42F6D3C5
:100AA000FFF728FB10760008307600082DE9F04D9E
:100AB00000231A461B1A8A4103DB00200146BDE8C9
:100AC000F08DC1F30A52C1F3130141F480154FF0C8
:100AD000000BD10702D100186D41521E00270446B9
:100AE00040F2FF11384601EB620A3E46804602465C
:100AF00000204FF48011FFF746FBC2197141BB186B
:100B000046EB0100B4EB030C75EB000C04D3E41AC4
:100B100065EB000517460E46241908F101006D41EA
:100B200080463428E3DDF91946EB0600091BA8418D
:100B300003D24FF0FF32134601E0002213461BEBB5
:100B4000070046EB0A51BDE8F04DFFF710BFFEE786
:100B50002DE9F04714461D46002206460F46DFF8F1
:100B60000C811346FFF718FE01D1414E414F002280
:100B7000134620462946FFF70FFE01D13C4C3D4D60
:100B80000022134630463946FFF706FE07D20122FF
:100B90000821404600F0CCF987F0004704E000222D
:100BA0000821404600F0C4F9002213462046294699
:100BB000FFF7F2FD07D200222021404600F0B8F9ED
:100BC00085F0004504E001222021404600F0B0F904
:100BD000DFF8A480DFF8A49042464B463046394601
:100BE000FFF7EDFC06460F4642464B462046294697
:100BF000FFF7E5FCDFF8888004460D4600224346F7
:100C000030463946FFF769FC1E4F02460B4600206E
:100C10003946FFF7D4FCFFF78DFD06460022434618
:100C200020462946FFF759FC02460B46002039466C
:100C3000FFF7C5FCFFF77EFD04460021124801F0D6
:100C40007BFA0021114801F077FA304602F064F88F
:100C5000204602F0CDF800210B4801F01FFABDE854
:100C6000F0470021094801F019BA0000000C0140CA
:100C7000FCA9F1D24D62503F75779D0DF967CA3FCF
:100C80000000754080843E4180010020C8010020A2
:100C90007047704710B590F821100024022903D046
:100CA0000421816301243DE001680A6822F00E02FC
:100CB0000A6001680A6822F001020A601A4A0168A3
:100CC000914201D1012121E0174A1432914201D110
:100CD00010211BE0144A2832914201D1891515E0F8
:100CE000114A3C32914201D189140FE00E4A503230
:100CF000914202D14FF4803108E00B4A64329142B4
:100D000002D14FF4801101E04FF08071064A083A99
:100D10005160012180F82110002180F82010416BE2
:100D200001B18847204610BD0800024070B5044656
:100D300000F004F90546601C02D004480078044421
:100D400000F0FCF8401BA042FAD370BD80000020E8
:100D50002DE9F84FDFF8B891002409F1040A0AF1EF
:100D6000040B23460F270BF1040EC9E00125A54013
:100D70002A40AA427DD1674ED1F804C0ACEB0608E8
:100D8000B44532D014DCBCF1030F3AD009DCBCF11D
:100D9000000F2AD0BCF1010F1CD0BCF1020F31D1E1
:100DA0001DE0BCF1110F17D0BCF1120F2AD119E0D0
:100DB000B8F5881F19D006DCB8F5803F15D0B8F516
:100DC000801F1FD111E0B8F5001F0ED0B8F5041F29
:100DD00018D10AE0CB6815E0CB681B1D12E0CB6888
:100DE00008330FE0CB680C330CE08B682BB1012B80
:100DF0004FF0080303D0456104E0042302E00561DD
:100E000000E00023FF2A01D8064601E000F10406B5
:100E10004FEA840501D9A5F12005D6F8008007FA2C
:100E200005FC28EA0C0803FA05F548EA0508C6F8A7
:100E300000804D68ED0062D5374DAE6946F0010681
:100E4000AE61AD6924F0030605F001050095334D50
:100E500006EB050CDCF80850A607360F07FA06F873
:100E600025EA0805DFF8B880404503D14FF00008B7
:100E700017E044E0DFF8AC80404502D14FF00108B4
:100E80000FE0DFF8A480404502D14FF0020808E0EF
:100E9000DFF89880404502D14FF0030801E04FF0A1
:100EA000040808FA06F848EA0508CCF808804D68F6
:100EB000D9F80060ED034D4601D5164300E0964396
:100EC0002E604D68DAF80060AD03554601D5164333
:100ED00000E096432E604D68DBF80060ED025D4651
:100EE00001D5164300E096432E604D68DEF80060A1
:100EF000AD02754601D5164300E096432E60641C92
:100F00000D682A46E5407FF431AFBDE8F88F000058
:100F100000040140000011100010024000000140D8
:100F200000080140000C0140001001400014014085
:100F30000AB1016170470904FBE7000001488068BD
:100F4000704700008000002070B5040025D094F8A0
:100F50003D00002520B984F83C50204600F078FA86
:100F6000242084F83D002068016821F0010101601F
:100F70002068016841F4004101602068016821F4A3
:100F80000041016000F0CAFB4D4A6168914201D8FE
:100F90004C4900E04C49884201D2012070BD4B49C8
:100FA0002368B0FBF1F15E6826F03F060E435E60F9
:100FB0006368934206D94FF4967359434FF47A739A
:100FC000B1FBF3F12368491C1E6A26F03F0631434A
:100FD00019626168914210D84900401EB0FBF1F2DD
:100FE000521CC2F30B02042A01D2042022E0B0FBFF
:100FF000F1F0401CC0F30B001CE0A268F2B301EB5F
:10100000C10303EB0116431EB3FBF6F35B1C43F471
:1010100080431B0549D092B301EBC10202EB0111E1
:10102000401EB0FBF1F0401CC0F30B0040F48040C8
:1010300040F400402168CA694CF6FF739A4310439C
:10104000C861D4E9071001432068026822F0C00299
:1010500011430160D4E9030101432068826848F22A
:10106000FF339A4311438160D4E9050108432168A5
:10107000CA6822F0FF021043C86001E00EE016E0EB
:101080002068016841F0010101602564202084F896
:101090003D00256384F83E50002070BD01EB410601
:1010A000431EB3FBF6F35B1CB3E70120C2E701EB81
:1010B0004101401EB0FBF1F0401CC0F30B00B7E74C
:1010C000A086010080841E0000093D0040420F0000
:1010D0002DE9FF4F83B00025DDE910799A4693464C
:1010E0000446DDF848800095FFF728FF064694F88F
:1010F0003D0020287CD119230122854920460096F5
:1011000001F05EFC0028F5D194F83C0001286FD076
:10111000012084F83C0020680168C90703D10168F8
:1011200041F0010101602068016821F40061016063
:10113000222084F83D00402084F83E002564676248
:10114000A4F82A90608D20857248E062CDE900867F
:1011500053465A462046049901F03AFB00287DD1B7
:10116000208DDFF8B491202768B1012814D002281F
:10117000206801681ED041F48061016020684169E7
:1011800080690090B6E0206841698169009101683A
:1011900041F400710160ADE02068016821F48061D4
:1011A000016072B62068416981690091016841F46B
:1011B00000710AE041F40061016072B62068416983
:1011C00081690091016821F48061016062B691E05B
:1011D000032868D801280CD0022843464FF00002AB
:1011E0004946204600960FD001F0EAFBB0BB10E064
:1011F0008BE032464146204601F061FC70BB20681E
:101200000069616A08706CE001F0DAFB30BB72B60D
:1012100034E02068016821F48061016072B62068C2
:101220000069616A0870606A401C6062208D401E1F
:101230002085608D401E6085384846F2A811006800
:10124000B0FBF1F0C0EBC00000EB80000090401E4E
:10125000009008D020684069C04300E029E04007C2
:101260000CD50098F3E744F8305F6773A5732069E5
:1012700040F02000206162B625731AE02068016802
:1012800041F40071016020680069616A0870606A59
:10129000401C6062218D491E2185618D491E61853A
:1012A00062B621681BE032464146204601F007FC49
:1012B00018B1012007B0BDE8F08F20680069616AAD
:1012C0000870606A401C6062218D491E2185618D15
:1012D000491E618521684A69D24352070AD40969C7
:1012E0000170606A401C6062208D401E2085608D08
:1012F000401E6085208D00287FF46AAF84F83D7021
:1013000084F83E5084F83C50D4E70220D2E7000035
:10131000020010000000FFFF040001008C0000200C
:101320002DE9FF4F83B09A46DDE9119793460446B5
:10133000DDF84080FFF702FE054694F83D002028C6
:101340007FD11923012240492046009501F038FB46
:10135000002876D194F83C00012872D0012084F84E
:101360003C0020680168C90703D1016841F0010110
:1013700001602068016821F400610160212084F887
:101380003D00402084F83E0000262664C4F82480F6
:10139000A4F82A90608D20852C48E062CDE9007584
:1013A00053465A462046049901F090FA70B930E04D
:1013B0002A463946204601F0B5FB58B1206C042876
:1013C00004D12068016841F400710160012007B078
:1013D000BDE8F08F606A216800780861606A401C8F
:1013E0006062218D491E89B22185628D521E6285FF
:1013F00022685369DB435B070BD469B10078106145
:10140000606A401C6062208D401E2085608D401EF9
:101410006085208D0028CBD12A463946204601F030
:10142000A9FA0028CAD154F83D0B016841F40071B3
:101430000160202004F81E09E67766770020C6E7E1
:10144000FFE70220C3E70000020010000000FFFFDA
:1014500010B586B0002100910191029103910068BE
:101460001349884222D1134CA06940F00800A061C2
:10147000A069694600F0080004904FF440700090A5
:1014800012200190032003900B48FFF761FC0B48EA
:10149000416841F0E06141F002014160E06940F4DF
:1014A0000010E061E06900F40010049006B010BD87
:1014B0000054004000100240000C014000000140B8
:1014C00002488168027811448160704780000020E2
:1014D000074810B5016841F010010160032000F0D9
:1014E00075F8002000F006F800F024F8002010BD88
:1014F0000020024070B50D4D04464FF47A712878F3
:10150000B1FBF0F00A490968B1FBF0F000F0ECFA29
:1015100048B9102C07D200222146501E00F036F8A0
:1015200000206C6070BD012070BD000080000020B4
:101530008C0000200C4808B5816941F001018161EF
:10154000816901F001010091C16941F08051C161DF
:10155000C06900F0805000900448416821F0E061CB
:1015600041F00071416008BD0010024000000140E0
:10157000002809DB00F01F02012191404009800092
:1015800000F1E020C0F8001170470000F0B40E4BED
:101590001B680C46C3F30223C3F10705042D00D9D1
:1015A0000425191D072901D2002300E0DB1E0126B6
:1015B00006FA05F1491E214099409E40761E1640CC
:1015C0003143F0BC01F0E4BE0CED00E0064900F050
:1015D000070208684FF6FF03184040EA0220034A5A
:1015E00010430860704700000CED00E00000FA05B1
:1015F0002DE9F0470F46050061D0434E306800F0FA
:101600000700B84209D2306820F007003843306044
:10161000306800F00700B84251D128683B4C810780
:1016200012D5400703D5606840F4E0606060287818
:10163000000703D5606840F4605060606068A96886
:1016400020F0F000084360602878C00728D0686860
:10165000012810D02168022810D0890700292EDA2D
:10166000616821F0030101436160FFF767FC804678
:1016700041F288390DE021688903EFE78901EDE740
:10168000FFF75CFCA0EB0801494502D90320BDE847
:10169000F0876068696800F00C00B0EB810FEFD153
:1016A000306800F00700B8420BD9306820F007001E
:1016B00038433060306800F00700B84201D00120A4
:1016C000E5E72878400705D56068E96820F4E06020
:1016D000084360602878000706D56068296920F40F
:1016E000605040EAC100606000F038F86168084A64
:1016F000C1F30311515CC840064908600648006800
:10170000FFF7F8FE0020C2E7002002400010024070
:10171000586700088C000020840000200448054918
:1017200000684968044AC1F30221515CC84070470F
:101730008C0000200010024068670008044805493A
:1017400000684968044AC1F3C221515CC84070472F
:101750008C000020001002406867000812A185B0CC
:101760000FC98DE80F0014A0144A00680490516856
:10177000134801F00C03042B10D0082B0ED1C1F339
:101780008343C9031DF803000AD5516804AAC1F3B5
:101790004041515C0A4A5043B0FBF1F005B070473C
:1017A00008494843FAE70000020304050607080950
:1017B0000A0B0C0D0E0F1010010200000010024069
:1017C00000127A0000093D002DE9F84F040070D0A6
:1017D0002078C04DC00749D06868C0F38100012857
:1017E00007D06868C0F38100022809D16868C00387
:1017F00006D52868800339D560680028E7D035E031
:101800006068B0F5803F0BD010B1B0F5A02F11D0BB
:10181000286820F480302860286820F4802002E0C6
:10182000286840F480302860606890B1FFF786FB3C
:1018300006460AE0286840F480202860F0E700BFF0
:10184000FFF77CFB801B642873D828688003F7D5DA
:101850000CE0FFF773FB064605E000BFFFF76EFBE9
:10186000801B6428F0D828688003F7D420789A4E2B
:1018700080074FF001094FF0000839D5686810F073
:101880000C0F07D06868C0F38100022809D168688E
:10189000C00306D42868800714D52069012808D120
:1018A00010E02069B0B1C6F80090FFF747FB07468B
:1018B00005E00AE1FFF742FBC01B0228C4D82868F4
:1018C0008007F7D52868616920F0F80040EAC10078
:1018D00028600DE0C6F80080FFF730FB074604E003
:1018E000FFF72CFBC01B022823D828688007F7D4F9
:1018F000207800072CD57948A169D9B1C0F80090AB
:10190000FFF71CFB074604E0FFF718FBC01B02288B
:101910000FD8686A8007F7D571484FF4FA5100680C
:10192000B0FBF1F0009000BF0098411E0091FAD288
:101930000EE080E0C0F80080FFF700FB074604E0FF
:10194000FFF7FCFAC01B022875D8686A8007F7D435
:101950002078400760D5E8690027C00008D4E8690E
:1019600040F08050E861E869012700F08050009065
:101970005C480168C90513D40168834641F480714D
:101980000160FFF7DBFA824606E000BFFFF7D6FAF8
:10199000A0EB0A0064284ED8DBF80000C005F5D59E
:1019A000E06801280AD008B1052813D0286A20F081
:1019B00001002862286A20F0040002E0286A40F052
:1019C00001002862E06841F2883B98B1FFF7B6FA5F
:1019D00082460BE0286A40F004002862EEE700BF70
:1019E000FFF7ACFAA0EB0A0159455AD8286A8007DC
:1019F000F6D50CE0FFF7A2FA824605E0FFF79EFA63
:101A0000A0EB0A0159454CD8286A8007F6D41FB1CB
:101A1000E86920F08050E861E06988B36968C1F343
:101A20008101022944D00228C6F8608004D0FFF763
:101A300085FA044638E034E0FFF780FA074604E010
:101A4000FFF77CFAC01B02282BD828688001F7D446
:101A5000206AB0F5803F05D16868A16820F40030A5
:101A600008436860D4E908010843696821F47411E7
:101A700008436860C6F86090FFF760FA044606E025
:101A800025E000BFFFF75AFA001B022809D8286892
:101A90008001F7D51BE000BFFFF750FA001B0228BA
:101AA00002D90320BDE8F88F28688001F4D40EE045
:101AB0000128F7D06868226A00F48031914204D18D
:101AC000616A00F47010884201D00120EAE700202A
:101AD000E8E7000000100240000042428004424259
:101AE0008C0000200070004010B5401EB0F1807FD7
:101AF00001D3012010BD4FF0E02460610F21601779
:101B000001F046FC0020A06107202061002010BDEC
:101B10007047704770B590F83C20012A26D0012408
:101B200080F83C40022280F83D2003685A689D6896
:101B300022F070060A6832435A600D4B02689A42DE
:101B400008D0B2F1804F05D00A4B9A4202D00A4B1E
:101B50009A4204D1496825F080031943916080F8C6
:101B60003D40002180F83C10084670BD022070BD49
:101B7000002C0140000400400008004010B50400A3
:101B800003D094F83D0010B107E0012010BD002003
:101B900084F83C00204600F01FF8022084F83D0045
:101BA000211D206801F0C2F9012084F8460084F864
:101BB0003E0084F83F0084F8400084F8410084F837
:101BC000420084F8430084F8440084F8450084F817
:101BD0003D00002010BD000008B50068B0F1804F46
:101BE00012D10A48C16941F00101C161C0690022F6
:101BF00000F00100009006211C20FFF7C7FCBDE8A3
:101C000008401C20FFF7B4BC08BD000000100240D3
:101C100090F83D10012901D001207047022180F881
:101C20003D100168CA6842F00102CA6000680B49B1
:101C3000884208D0B0F1804F05D00949884202D0CF
:101C40000849884204D1816801F00701062903D0C0
:101C5000016841F00101016000207047002C014043
:101C6000000400400008004070B5044690F83C00B5
:101C7000012817D0012584F83C50022084F83D004B
:101C80002068826822F0770222F47F42826008682E
:101C9000502830D00DDC20284DD005DC98B310281A
:101CA0003BD148E0022070BD302844D0402834D1D8
:101CB00039E0602828D0702806D0B0F5805F2CD09D
:101CC000B0F5005F29D10AE0CB68D1E90121206895
:101CD00001F06FF92068816841F0770109E0CB6875
:101CE000D1E90121206801F064F92068816841F49C
:101CF0008041816011E0CA684968206801F00EFAED
:101D00005021206807E016E0CA684968206801F0A1
:101D100016FA6021206801F056F984F83D50002041
:101D200084F83C0070BDCA684968206801F0F6F983
:101D300040212068EFE7226801461046EBE7704734
:101D400070B50446006801694FF00005C943890772
:101D500015D4C168C943890711D4E91E0161012066
:101D60002077206880698007204602D0FFF7E7FFD0
:101D700004E000F0DFF8204600F08EF925772068B7
:101D80000169C943490717D4C168C943490713D436
:101D90006FF004010161022020772068806910F44F
:101DA000407F204602D0FFF7CAFF04E000F0C2F8EF
:101DB000204600F071F9257720680169C9430907B9
:101DC00016D4C168C943090712D46FF00801016134
:101DD000042020772068C0698007204602D0FFF7E2
:101DE000AEFF04E000F0A6F8204600F055F9257794
:101DF00020680169C943C90617D4C168C943C90627
:101E000013D46FF010010161082020772068C069A9
:101E100010F4407F204602D0FFF791FF04E000F06D
:101E200089F8204600F038F9257720680169C94310
:101E3000C90708D1C168C943C90704D1891E016116
:101E4000204600F0B1F920680169C943090609D4A8
:101E5000C168C943090605D46FF0800101612046BD
:101E6000FFF756FE20680169C943490609D4C168D5
:101E7000C943490605D46FF040010161204600F0D6
:101E800075FA20680169C94389060BD4C168C94342
:101E9000890607D46FF0200101612046BDE870403B
:101EA000FFF737BE70BD000030B585B0002100914E
:101EB0000191029103911A4D04681A4902220123EB
:101EC0001948AC4219D18C6944F008048C618969C5
:101ED000039301F0080104911021CDE90012694635
:101EE000FEF736FF1148416821F4406141F0E0619E
:101EF00041F40061416005B030BD0D4DAC42FAD1F6
:101F00008C6944F008048C618969039301F008012D
:101F100004914021CDE900126946FEF719FFEAE776
:101F20000004004000100240000C0140000001408D
:101F300000080040704770B5044690F83C000D461C
:101F400001280AD0012084F83C0042B1042A18D0AC
:101F5000082A2AD00C2A4DD139E0022070BD206811
:101F600001F03AF82068816941F008018161206838
:101F7000816921F004018161206881692A69114326
:101F800011E0206801F050F82068816941F4006197
:101F900081612068816921F48061816120688169A3
:101FA0002A6941EA0221816124E0206801F068F891
:101FB0002068C16941F00801C1612068C16921F050
:101FC0000401C1612068C1692A69114311E02068D8
:101FD00001F082F82068C16941F40061C1612068A4
:101FE000C16921F48061C1612068C1692A6941EA3F
:101FF0000221C161002084F83C0070BD10B50400CE
:1020000003D094F83D0010B107E0012010BD00207E
:1020100084F83C00204600F01FF8022084F83D00C0
:10202000211D206800F082FF012084F8460084F81A
:102030003E0084F83F0084F8400084F8410084F8B2
:10204000420084F8430084F8440084F8450084F892
:102050003D00002010BD000008B50C4A01680C4886
:10206000914207D1C16941F00201C161C06900F02C
:10207000020009E0074A914207D1C16941F0040119
:10208000C161C06900F00400009008BD0004004078
:1020900000100240000800407047000010B50446E0
:1020A000022249B104290ED0082913D094F8410026
:1020B000012816D0012010BD94F83E000128F9D166
:1020C00084F83E200FE094F83F000128F2D184F814
:1020D0003F2008E094F840000128EBD184F840202C
:1020E00001E084F841200122206800F055FF0F49EB
:1020F0002068884203D1426C42F400424264206866
:10210000884208D0B0F1804F05D00949884202D0FA
:102110000849884204D1816801F00701062903D0EB
:10212000016841F001010160002010BD002C014058
:10213000000400400008004030B504460D46006829
:10214000002200F029FF174B41F2111120688A107C
:10215000984209D1036A0B4206D1036A134203D1A4
:10216000436C23F4004343642068036A0B4206D1A6
:10217000016A114203D1016821F0010101600120CF
:102180003DB1042D08D0082D09D084F8410000206D
:1021900030BD84F83E00FAE784F83F00F7E784F8A2
:1021A0004000F4E7002C01402DE9F04F69496A4CEA
:1021B00093B088427DD1D4E90001401AFEF77CFA41
:1021C000002206460D461346FEF7E6FA304602D2D6
:1021D00085F0004100E029460022604BFEF7EFF950
:1021E00000225F4BFEF776F902460B4600200146BF
:1021F00003F032FAD4E90423FEF769F9C4E91401C3
:10220000D4E91E2305460E46FEF761F9C4E9120122
:1022100083460191D4E916012A463346FEF7B6F803
:10222000C4E91601D4E918230746884628463146F2
:10223000FEF753F9D4E91A2381468A4638464146C7
:10224000FEF74BF9D4E91C23064688465846019907
:10225000FEF743F907460D46324643464846514687
:10226000FEF794F83A462B46FEF790F882468B46E6
:102270003C4804F049F83B480068FEF77AFA0E46FD
:102280000191D4E91013CDE906130A468046314680
:10229000FEF71DF952465B46FEF719F9D4E90E2305
:1022A00005460E46FEF713F92A463346CDE90201EC
:1022B00000E04BE0D4E90601FEF768F8C4E9060146
:1022C000D4E9082381460F4628463146FEF705F932
:1022D000CDE90E01D4E90A2348463946FEF7FDF858
:1022E0001191D4E90C238146DDE90201FEF7F5F8EE
:1022F00002900F46DDE90E014A46119BFEF746F8B3
:102300003B46029AFEF742F8C4E904010B46C44674
:10231000CDE904030199CDF820C009AA88460397A6
:1023200082E8000D11991048CDE90091DDE90E23F6
:1023300001F00AF8D4E90401D4E9022303F0B8FF5C
:10234000C4E90E56D4E91401C4E91E0113B0BDE876
:10235000F08F0000380100200000002000005440F1
:102360000000F83FB0020020B074000870477047CA
:1023700070B5026804461068D168536910F00F0FF9
:1023800052D003F0010501F490762E435FD0C207CE
:1023900005D0CA0503D5E26B42F00102E2634207B1
:1023A00005D5DA0703D0E26B42F00202E26382074E
:1023B00005D5DA0703D0E26B42F00402E2630207BC
:1023C00007D501F020022A4303D0E26B42F0080255
:1023D000E263E26B002A33D0800604D5880602D57A
:1023E000204600F0D4FE20684069E16BC0F3801005
:1023F000090700D428B3204600F0BBFE20684169DD
:1024000049061AD5416921F040014161606BA0B1D4
:102410002D494163606BFEF73DFC002810D0606BD6
:10242000416BBDE870400847830610D58B060ED57A
:102430002046BDE8704000F0AABE2046FFF797FF97
:1024400070BD2046FFF793FF0020E06370BD0306D8
:102450002BD50B0629D594F839002128F6D1A06890
:10246000B0F5805F01D12069B0B1206A411C2162C2
:10247000216800784860E08C401E0004000CE08475
:10248000E4D12068C16821F08001C1602068C16882
:1024900041F04001C16070BD206A0088C0F30800AF
:1024A0005060206A801C2062E5E74006F3D54806AC
:1024B000F1D5D168204621F04001D160202184F877
:1024C000391000F06CF970BD6331000870B504007C
:1024D00004D094F83900002510B106E0012070BD49
:1024E00084F83850204600F023F8242084F839007E
:1024F0002068C16821F40051C160204600F08EFEC2
:102500002068016921F4904101612068416921F04E
:102510002A0141612068C16841F40051C160E5634E
:10252000202084F8390084F83A00002070BD0000B3
:1025300070B586B0002400940194029403942B4E4D
:1025400003682B49022003222A4DB34229D18B690B
:1025500043F480438B618B6903F4804304938B695C
:1025600043F004038B618969039201F00401049133
:102570000102CDE9001069462846FEF7E9FB28155F
:10258000CDE90004694628460294FEF7E1FB0022EB
:1025900011462520FEF7FAFF2520FEF7E9FF06B0D9
:1025A00070BD154EB342FAD1CB6943F40033CB6111
:1025B000CB6903F4003304938B6943F004038B610C
:1025C0008969039201F0040104910421CDE900100E
:1025D00069462846FEF7BCFB0820CDE900046946A1
:1025E00028460294FEF7B4FBD9E70000003801400A
:1025F00000100240000801400044004090F83A30CA
:10260000202B22D1F9B1F2B190F83830012B1CD037
:1026100081628285C2850021C163222280F83A202E
:1026200080F838100168CA6842F48072CA60016894
:102630004A6942F001024A610068C16841F0200124
:10264000C1600020704701207047022070470000E1
:102650002DE9F04120480178372935D18178427839
:102660001E4C01EB02214FF4A07321600279C07867
:1026700002EB002000226060994200D12260984263
:1026800000D16260D4E90001144B00FB01F2D3E9F0
:1026900004563AB10844A0F5A070FEF70DF80022E8
:1026A0000F4B09E00F4F09B1084600E060B1A038B8
:1026B000FEF702F800223B46FDF781FF2A4633462B
:1026C000FDF70BFFC4E90201BDE8F0410522024914
:1026D0000548FFF793BF0000D8000020000000204D
:1026E0000080664000805640100200202DE9F8432B
:1026F000044690F839001F4616460D4620284CD156
:10270000C5B1BEB194F83800012846D0012084F844
:1027100038004FF00008C4F83C80212084F83900CC
:10272000FEF70CFCA6848146E684A068B0F5805FC5
:1027300003D004E00120BDE8F883206928B12E46CB
:102740005FF0000584F838800EE00026FAE780216B
:10275000204600F0BFFDA0B9AEB116F8010B21680C
:102760004860E08C401EE084E08C4B464FF0000255
:1027700000970028EBD14FF04001204600F0AAFD61
:1027800030B10320D7E735F8020BC0F30800E6E7C5
:10279000202084F839000020CDE70220CBE77047E5
:1027A000FEE701684A69D24352050FD46FF4806294
:1027B0004A61002140F8301F202242738173026970
:1027C00042F004020261017301207047002070474B
:1027D0002DE9F84F0446006889460B9D016898462C
:1027E000174641F4806101602068016841F48071FE
:1027F000016000954FF0011B0022594620460A9BBC
:1028000000F0DEF84FF4007A40B120680068C0059F
:1028100001D5C4F840A00320BDE8F88F216809F075
:10282000FE0008612B46284920460A9A00F0FCF871
:10283000F0BB20684169806900902A4620460A99C9
:1028400000F070F940B1206C04283AD1206801688A
:1028500041F40071016034E0FEB2B8F1010F09D01B
:102860002168380A08612A4620460A9900F05AF978
:102870000028E8D1206806612A4620460A9900F01F
:1028800051F90028DFD12068016841F480710160AE
:1028900000950022594620460A9B00F091F8002836
:1028A000B3D1216809F0FF0040F00100086100E0A9
:1028B00007E02B46044920460A9A00F0B5F80028A4
:1028C000AAD00120A8E70000020001002DE9F8438A
:1028D000044600680D46DDE90897016898461646EB
:1028E00041F4807101604B4600224FF001112046F7
:1028F000009700F065F848B120680068C00502D56F
:102900004FF4007020640320BDE8F883216805F0CF
:10291000FE0008613B464A461549204600F084F80F
:1029200088B920684169806900903A464946204646
:1029300000F0F8F848B1206C042804D12068016840
:1029400041F4007101600120DEE7F5B2B8F1010F3A
:1029500009D02168300A08613A464946204600F00D
:10296000E1F80028E7D1206805610020CCE70000ED
:102970000200010070B516460D4604460DE02046E3
:10298000FFF70FFF08B1012070BD681C05D0FEF7EE
:10299000D5FA801BA84207D835B120684069C043EA
:1029A0004007ECD4002070BD002044F8300F2021F7
:1029B0006173A073216941F0200121612073E2E776
:1029C0002DE9F0471E4690460D460446C1F30747E1
:1029D000DDF8209008E0701C06D0FEF7AFFAA0EBFF
:1029E0000900B0420FD876B12068012F18D0806955
:1029F00025EA00000004000C14D000214145EAD073
:102A00000020BDE8F087002044F8300F20216173DA
:102A1000A073216941F02001216120730120F0E7BA
:102A20004069E5E70121E9E72DE9F0479A4691463B
:102A30000E46044600254FF02008C1F3074725E065
:102A400020684069C043400514D42068016841F4FF
:102A50000071016021686FF480604861256384F82B
:102A60003D8084F83E50206C40F00400206484F8DF
:102A70003C501FE0B9F1FF3F08D0FEF75FFAA0EB32
:102A80000A0149450CD8B9F1000F09D02068012F7F
:102A900013D0806926EA00000004000C0BD0CFE7B9
:102AA00044F8305F84F80D80A573206940F0200061
:102AB000206125730120BDE8F0874069EAE72DE930
:102AC000F041002590460E460446202717E0406955
:102AD000C043C0060CD454F8301B6FF0100048619E
:102AE00044F810596777A577206A2062257717E0A8
:102AF000FEF724FAA0EB0800B04208D83EB12068E7
:102B00004169C9434906E2D40020BDE8F08144F898
:102B1000305F6773A573206940F020002061257342
:102B20000120F2E770B516460D4604460DE020463A
:102B3000FFF737FE08B1012070BD681C05D0FEF715
:102B4000FDF9801BA84207D835B120684069C04311
:102B50000006ECD4002070BD002044F8300F202186
:102B60006173A073216941F0200121612073E2E7C4
:102B700030B585B000241E4800940194029403945B
:102B8000816941F020018161816901F02001049196
:102B9000816941F004018161816901F004010491BE
:102BA000816941F0080181618069124D00F00800DF
:102BB0000490012228212846FEF7BAF9002280213C
:102BC0002846FEF7B5F9102000900B48CDE9010426
:102BD00069460A48FEF7BCF8A82001218DE81300D9
:102BE000039169462846FEF7B3F805B030BD0000F2
:102BF00000100240000C01400000211000080140BC
:102C00000D4810B50B4901600C49416000214FF49B
:102C100080428160C0E9031241618161C16101624A
:102C2000FEF792F9002803D0BDE81040FEF731B856
:102C300010BD000000540040E4000020801A06008F
:102C400010B586B0002416480094019402940394B1
:102C500004944FF08041059401604721C0E90114BC
:102C60004FF47A71C0E903148461FEF787FF08B15D
:102C7000FEF70FF84FF48050009069460848FEF7C1
:102C8000F3FF08B1FEF705F8049404A9044805947D
:102C9000FEF740FF002801D0FDF7FBFF06B010BD96
:102CA0003801002010B58AB0002407941C21684622
:102CB0000894FDF77FFA1748154901602321C0E900
:102CC000011440F2E731C0E903148461FFF796F97B
:102CD00008B1FDF7DEFF079407A90E480894FEF738
:102CE00019FF08B1FDF7D5FF602000904FF4FA708E
:102CF000CDE901040022694606480494FFF71BF958
:102D000008B1FDF7C6FF0348FFF7CEF80AB010BDC3
:102D1000000400408001002070B58AB000240646FF
:102D200007941C2168460894FDF744FA124D114897
:102D3000761E01C5232051C50F4845F81049AC61E6
:102D4000FFF75CF9079407A90B480894FEF7E2FE29
:102D500060200090E86800224008CDE9010469463F
:102D600005480494FFF7E7F80348FFF79DF80AB019
:102D700070BD0000000400408001002010B58AB042
:102D8000002407941C2168460894FDF713FA17489D
:102D9000154901602321C0E9011440F2E731C0E97F
:102DA00003148461FFF72AF908B1FDF772FF079455
:102DB00007A90E480894FEF7ADFE08B1FDF769FFBC
:102DC000602000904FF4FA70CDE9010400226946BA
:102DD00006480494FFF7AFF808B1FDF75AFF03481F
:102DE000FFF762F80AB010BD00080040C8010020DB
:102DF00070B58AB00024064607941C2168460894E2
:102E0000FDF7D8F9124D1148761E01C5232051C592
:102E10000F4845F81049AC61FFF7F0F8079407A98F
:102E20000B480894FEF776FE60200090E8680022C8
:102E30004008CDE90104694605480494FFF77BF892
:102E40000348FFF731F80AB070BD000000080040E9
:102E5000C80100200C4810B50A4901604FF4E13167
:102E60004160002181600C22C160C0E904128161CF
:102E7000C161FFF72BFB002803D0BDE81040FDF730
:102E800008BF10BD00380140100200200C4810B5EA
:102E90000A4901604FF4E1314160002181600C2258
:102EA000C160C0E904128161C161FFF70FFB002816
:102EB00003D0BDE81040FDF7ECBE10BD004400405B
:102EC00050020020FEE7704770477047FEF7F8BADF
:102ED00030B58FB028216846FDF76CF914210AA897
:102EE000FDF768F901210804CDE9001000240294DF
:102EF00002250491CDE907504FF4E010099068468F
:102F0000FEF762FC0F20CDE90A056802CDE90C400E
:102F100002210AA80E94FEF76BFB0FB030BD70477C
:102F20000148FEF70DBF000038010020F0B502682F
:102F3000164B174C174D4FF08047984205D0B842BA
:102F400003D0A04201D0A84203D122F070064A6803
:102F50003243984205D0B84203D0A04201D0A842E3
:102F600003D122F44074CA6822434C6922F08002E3
:102F7000224302608A68C2620A688262984201D172
:102F80000969016301214161F0BD0000002C01408D
:102F9000000400400008004010B501F01F030121AB
:102FA000046A99408C430462016A9A4011430162A9
:102FB00010BD10B5846842EA032224F47F440A431A
:102FC0002243826010BD826822F070020A4342F000
:102FD000070181607047000030B5026A22F00102EB
:102FE0000262026A4368846924F073050C682C430A
:102FF00022F002058A682A430A4DA8420BD122F02A
:103000000805CA6823F440732A434D6922F004027C
:103010001D438B692B4343608461496841630262AD
:1030200030BD0000002C014030B5026A22F01002D1
:103030000262026A436884690D6824F4E64444EA43
:1030400005248D6822F0200242EA05120B4DA842A9
:103050000ED1CD6822F0800242EA05124D6923F4B8
:10306000406343EA85038D6922F0400243EA850309
:103070004360846149688163026230BD002C014075
:1030800030B5026A22F480720262036A4268C4693F
:1030900023F4007324F073050C682C438D6843EA15
:1030A00005230C4DA8420ED1CD6823F4006343EAFA
:1030B00005234D6922F4405242EA05128D6923F43A
:1030C000806342EA05124260C4614968C1630362D9
:1030D00030BD0000002C014030B5026A22F480525D
:1030E0000262046A4268C3690D6823F4E64343EA56
:1030F00005238D6824F4005444EA0534064DA842A3
:1031000004D14D6922F4804242EA85124260C361D3
:1031100049680164046230BD002C014010B5036AA7
:10312000046A24F001040462846924F0F00444EA8F
:10313000021423F00A020A438461026210BD10B532
:10314000036A23F0100303628369046A23F4704363
:1031500043EA023224F0A00343EA011182610162D2
:1031600010BD10B5406A0021C185C184FFF7FFF88A
:1031700010BD0168CA6822F49072CA6001684A6989
:1031800022F001024A61202180F83A10704710B500
:1031900090F83A10222901D0022010BD82684FF425
:1031A00080539A4201D1016921B1816A9A421BD0B0
:1031B0004AB10AE00268816A5268C2F308020A80D2
:1031C000816A891C08E0026972B10268526802F0E3
:1031D0007F020A70816A491C8162C18D491E0904FF
:1031E000090CC18503D016E002685268F1E7016856
:1031F000CA6822F02002CA600168CA6822F480729C
:10320000CA6001684A6922F001024A61202180F8FF
:103210003A10FFF71DFA002010BD000070B50446FB
:1032200000680169E26821F440511143016121699C
:10323000A0680843616908432168CA6841F20C63C9
:103240009A430243CA6020684169A26921F440712F
:10325000114341611E492068884202D1FEF76EFA8F
:1032600001E0FEF75BFA00EBC00101EB00126068C1
:1032700064218000B2FBF0F3B3FBF1F36FF01806AA
:103280007343B2FBF0F5B2FBF0F605EB8305322396
:1032900003EB0515B5FBF1F5B6FBF1F605F0F0050E
:1032A00005EB0615B2FBF0F6B2FBF0F0B0FBF1F067
:1032B0006FF01802504306EB800003EB0010B0FBE8
:1032C000F1F0216800F00F002844886070BD000014
:1032D000003801402DE9F041984617460E46044655
:1032E000069D1DE0681C1BD02DB1FDF727FEA0EB4D
:1032F0000800A84214D92068C16821F4D071C160C7
:103300002068416921F001014161202084F83900E1
:1033100084F83A00002084F838000320BDE8F081EA
:103320002068006836EA000004D00020B842D9D0F6
:103330000020F3E70120F9E70148FFF719B8000082
:1033400010020020FEE700000FB4054B10B503A9E2
:10335000044A029800F06CF910BC5DF814FB000000
:1033600071500008D0000020490050EAC12018BF69
:1033700004204A0D18BF40F0010040F2FF72B2EB8A
:10338000515F08BF40F00200012808BF05207047C8
:103390000907090E002804DB00F1E02080F8001482
:1033A000704700F00F0000F1E02080F8141D704716
:1033B0002DE9F0414F1E00EBC7010446D1E90001A1
:1033C00015461E4637F006020DD02A463346FDF755
:1033D00084F87F1E04EBC703D3E90023FCF7D6FF74
:1033E00037F00602F1D1022F25D0042F13D0062F7B
:1033F00018BFBDE8F0812A463346FDF76EF8D4E9E0
:103400000A23FCF7C3FF2A463346FDF766F8D4E9E2
:103410000823FCF7BBFF2A463346FDF75EF8D4E9E4
:103420000623FCF7B3FF2A463346FDF756F8D4E9E6
:103430000423FCF7ABFF2A463346FDF74EF8D4E9E8
:103440000223FCF7A3FF2A463346FDF746F8D4E9EA
:103450000023BDE8F041FCF799BF0122FDF7E4BA73
:10346000FCF794BF0022134610461146FDF7A7B89B
:10347000024A00201107FDF7D7BA000001FDFFFF47
:1034800002E008C8121F08C1002AFAD1704770472D
:10349000002001E001C1121F002AFBD1704700008B
:1034A0000149086070470000D40000202DE9FF5F4B
:1034B00082B00021DDE90430020DDDF840B00343A5
:1034C00018D044F61050A2F2FF324243151411985E
:1034D00001281FD0A5EB0B00401C5FEA000A4FF04B
:1034E00000064E4FDFF83891B046504615D5CAF168
:1034F000000413E0119801244AA3012801D16FEAC6
:103500000B010298119AC0E90031C0E9024206B0ED
:10351000BDE8F09FCBF10000DFE704460021404A00
:10352000491842EB0450CDE9001012E0E00707D043
:1035300032463B4640464946FCF7CFFF8046894627
:1035400032463B4610461946FCF7C7FF06460F4673
:103550006410002CEAD1DDE90401DDE90023BAF1B1
:10356000000F06DAFCF7B9FF42464B46FCF7B5FF01
:1035700005E0FDF724F842464B46FDF720F80446E7
:103580000E460022284BFDF71FF903D84FF0FF30FD
:10359000014607E00022254B20463146FCF7F6FEA7
:1035A000FDF759FA102409E0002C0ADB0A22002357
:1035B000FDF754F9039B30321A55641E50EA01029C
:1035C000F2D1641C039AC4F111031444119A012A24
:1035D00003D0012208430DD10AE0084304D00020A3
:1035E0004FF0110B119072E7A3EB0B056D1E0DE070
:1035F0005B4504DD4FF0000205F1010504E003DA4C
:103600004FF00002A5F10105002AECD002981199B3
:10361000C0E90231C0E9004579E70000000014402C
:103620000000F03F300000000000F0430000E03FE9
:103630002DE9FF4F95B09B468946064600250FE2CF
:10364000252877D100242746F84A0121059400E077
:10365000044316F8013F203B01FA03F01042F7D172
:1036600030782A2811D06FF02F033078A0F1300283
:10367000092A16D8059A44F0020402EB820203EBF1
:1036800042021044761C0590EFE759F8042B05928E
:10369000002A03DA504244F40054059044F0020436
:1036A000761C30782E2816D116F8010F44F0040449
:1036B0002A280DD06FF02F023078A0F13003092BAB
:1036C00009D807EB870302EB4303C718761CF3E71F
:1036D00059F8047B761C30786C280FD006DC4C2817
:1036E00017D068280DD06A2814D104E0742810D0AF
:1036F0007A280FD10DE044F400140AE044F4801459
:1037000001E044F440147278824202D104F580143E
:10371000761C761C307866280BD013DC582877D0BE
:1037200009DC002875D04528F6D04628F4D0472873
:103730001AD19DE118E0632835D0642879D0652836
:1037400012D195E1702873D008DC6728F1D0692880
:103750006FD06E280DD06F2806D1B5E073282CD01D
:10376000752875D0782874D05A46179990476D1CE3
:1037700075E1C4F30250022809D003280DD0D9F80E
:10378000001004280DD00D6009F1040967E1D9F893
:103790000010EA17C1E90052F6E7D9F800100D80D1
:1037A000F2E70D70F0E719F8041B8DF80010002007
:1037B0008DF80100EA46012003E059F804AB4FF010
:1037C000FF3061074FF0000102D40DE008F1010164
:1037D0008846B9420FDA8045F8DB1AF8081000294C
:1037E000F4D108E008F1010188468142FADB1AF8B9
:1037F00008100029F6D105985B46A0EB0807214682
:103800003846179A00F094FA284400EB080507E0C0
:103810004DE029E10DE01AF8010B5A46179990473F
:10382000B8F10108F7D25B4621463846179A13E1F2
:1038300042E00A220092C4F302524FF0000A022A28
:1038400008D059F804CB032A4FEAEC710AD00DE0F6
:1038500029E02AE009F1070121F00702F2E802C19C
:10386000914609E00FFA8CFC4FEAEC71042A03D16F
:103870004FFA8CFC4FEAEC71002907DA0A46002166
:10388000DCF1000C61EB02012D2202E0220504D5DF
:103890002B228DF80420012203E0E20701D0202230
:1038A000F7E7904659E00A2102E010220DE01021CE
:1038B0004FF0000A00910BE010224FF0000A44F094
:1038C00004040827009203E008224FF0000A009247
:1038D000C4F30252022A05D059F804CB0021032A6E
:1038E00008D009E009F1070121F00702F2E802C15E
:1038F000914605E01FFA8CFC042A01D10CF0FF0C64
:103900004FF00008220728D5702806D0009B83F0CE
:10391000100353EA0A0305D00EE040228DF804207C
:10392000012208E05CEA010206D030228DF8042072
:103930008DF8050002229046009B83F0080353EAAD
:103940000A030AD15CEA010201D1620705D53022DF
:103950008DF804204FF001087F1E582804D034A0B1
:1039600003900EA802900DE036A0F9E7534660469A
:10397000009AFCF773FF84460398825C0298401E0D
:10398000029002705CEA0100F0D1029806A9081AC0
:1039900000F1200A600702D524F4803400E00127FA
:1039A000574502DDA7EB0A0000E0002000EB0A010A
:1039B000009005984144401A0590E00306D45B4608
:1039C0002146179A059800F0B3F90544002706E050
:1039D00001A85A46C05D179990476D1C7F1C47454A
:1039E000F6DBE0030CD55B462146179A059800F0FC
:1039F0009FF9054404E030205A46179990476D1C02
:103A00000099481E00900029F5DC08E00298029910
:103A10005A460078491C0291179990476D1CBAF1DB
:103A20000001AAF1010AF1DC65E1000009280100AA
:103A30003031323334353637383961626364656624
:103A400000000000303132333435363738394142E6
:103A5000434445460000000000F058F90544761C38
:103A6000307800287FF4ECAD19B02846BDE8F08F1F
:103A7000620700D4062709F1070222F0070CFCE8D0
:103A80000223E14603F000485FEA080C02D00FF27F
:103A9000702C0DE05FEA045C02D50FF2682C07E0A1
:103AA0005FEAC47C02D00FF2602C01E0AFF2700C30
:103AB0004FF0FF3823F00043CDF850C065280CD0FC
:103AC00006DC452809D046281DD047283DD13DE0D9
:103AD000662818D067287ED138E00021112F01DB3D
:103AE000112000E0781CCDE9000106A90EA8FFF71F
:103AF000DDFCDDE90F010E9A03910021009207F130
:103B0000010A04914DE04FF000400097CDE901100B
:103B100006A90EA8FFF7CAFCDDE90F0203920E9B6F
:103B200011990022DDF80CA00093049211B9791CC0
:103B300000EB010AB7EB0A0004D4C0F1FF3007F133
:103B4000010A0490AAEB0700019044E0012F00DA7B
:103B500001270021112F01DD112000E03846CDE9B9
:103B6000000106A90EA8FFF7A1FCDDE90F010E9ADE
:103B70000391002104910092BA4621070CD40399C5
:103B8000514500DA8A46BAF1010F05DD009AAAF123
:103B90000101515C302908D0B84202DA10F1040F5B
:103BA00006DA0121CDE9011015E0AAF10101E9E7EA
:103BB000002805DC049901440491AAEB000102E00D
:103BC000411C514500DD8A460499401A401C019071
:103BD0004FF000400290200704D40198504501DBCB
:103BE000CDF8048000208DF84F0002980DF14F07AA
:103BF000B0F1004F25D02B200E9002984FF0020814
:103C000000280CDA404202902D200E9007E00A2195
:103C10000298FCF70DFE3031029007F8011DB8F153
:103C20000001A8F10108F2DC02980028EFD1791E0A
:103C30000E980870307800F0200040F0450007F83A
:103C4000020D12A8C01B00F107081498007800B1FB
:103C5000012000EB0A01019801EBE0710598414455
:103C6000401A401E0590E00306D45B462146179A91
:103C7000059800F05DF805441498007818B15A468C
:103C8000179990476D1CE00324D55B462146179A8F
:103C9000059800F04DF805441CE00498002807DB67
:103CA000DDE90301884203DD0098405C179901E0DB
:103CB000179930205A469047049805F10105401C99
:103CC00004900198401E019004D12E205A46179965
:103CD00090476D1CBAF10001AAF1010ADDDC05E094
:103CE00017F8010B5A46179990476D1CB8F100015F
:103CF000A8F10108F4DC5B462146179A0598ABE66B
:103D00002D0000002B000000200000002DE9F041F4
:103D1000044600251E461746880404D405E03946AB
:103D20002020B0476D1C641EF9D52846BDE8F081FF
:103D30002DE9F041044600251E469046C80301D5F2
:103D4000302700E02027880404D505E041463846A6
:103D5000B0476D1C641EF9D52846BDE8F08100000F
:103D60002DE9FE4F07460E460025684601F090F902
:103D700000246FF00F0AE8464FF0010957F82400BD
:103D800056F82410401A00D54042FCF787FC5146F3
:103D9000FCF7F0FA58F8241011F0FF4F0BD0FCF7A5
:103DA000ABFA4FF07E51FCF76FFA0A4920F0004061
:103DB000884205DC07E0084908440849884202D3E4
:103DC00009FA04F00543641C032CD7DB2846BDE840
:103DD000FE8F0000295C0F3E666666C19A99D90085
:103DE0002DE9F04D8D4F21F0004A86B005460C4676
:103DF000BA452ADBAAEB070028430AD08848824547
:103E000001DC1AD1CDB106B02846BDE8F04DFFF770
:103E100024BB844A844B2846FCF75FFB07460E46CA
:103E2000824A834B28462146FCF757FB06B03A46A8
:103E30003346BDE8F04DFCF7A9BA0120FFF730FB8F
:103E400006B0BDE8F04DFFF70DBB7A48824542DA77
:103E5000BAF1795F0BDA2846FFF786FA042808BF23
:103E6000FFF706FB284606B02146BDE8F08D2A463E
:103E70000B461046FCF731FB834602466E480E4661
:103E80000B4606217844FFF793FA5A463346FCF76F
:103E900024FB804669488A465A46334604217844C2
:103EA000FFF786FA5A463346FCF717FB00223B46DB
:103EB000FCF76CFA02460B4640465146FCF77FFB86
:103EC0002A462346FCF709FB06B02A462346BDE8EE
:103ED000F04DFCF75BBA284624F0004100223D4635
:103EE0003B46FCF7F7FA4FF0FF32FCF79DFD064624
:103EF000024653480F460B4606217844FFF758FA0E
:103F000032463B46FCF7E9FACDE900014D4832461E
:103F10003B4604217844FFF74BFA32463B46FCF718
:103F2000DCFA00222B46FCF731FA83460291304638
:103F3000394602F035FB804643480D46504517DCB4
:103F4000DDE900015A46029BFCF739FB42462B464D
:103F5000FCF7C3FA42462B46FCF718FA0122FCF79D
:103F600063FD304A304BFCF7B2FA304A304B4CE03C
:103F70004FF0000A52460B464046FCF707FACDE9DF
:103F8000031052462B4610461946FCF7A6FA324655
:103F90003B46FCF79FFADDE90332FCF710FB0646CF
:103FA0000F46DDE900015A46029BFCF708FB8346F9
:103FB0000091012230463946FCF736FD194A1A4B6A
:103FC000FCF788FA06460F46012240462946FCF7D0
:103FD0002BFD5A46009BFCF780FA32463B46FCF725
:103FE00076FA06460F46012250462946FCF71CFD8C
:103FF0000E4DDFF858802A464346FCF76BFA3246EE
:104000003B46FCF767FA2A464346FCF763FA002C66
:10401000D8BF81F0004106B0BDE8F08D0000F03F50
:104020000000F07F075C143326A6913C182D445401
:10403000FB21F93F0000E03F383500004E3500001D
:10404000C2340000D83400003333EF3FFB21E93F96
:104050002DE9F84F04460D4621F0004000917349C8
:10406000814211DC7249884201DC06D12CB1204624
:104070002946BDE8F84FFFF7F0B96E48002DCCBFD8
:104080006D496E49BDE8F88F6D49814211DD6D497A
:104090008142D8BF4FF0FF366DDD20462946FFF73D
:1040A00063F9042808BFFFF7E3F920462946BDE875
:1040B000F88F6549654F25F00045814233DD64493D
:1040C000814219DD002632464FF0804320462946C2
:1040D000FCF75CF980468A46012220462946FCF717
:1040E000A3FC00223B46FCF7F2F942465346FCF79C
:1040F00066FA04460D463EE001260022BA463B46DB
:1041000020462946FCF742F980460F4600225346D6
:1041100020462946FCF7DBF942463B46FCF74FFABE
:1041200004460D4627E04B4981421BDDDFF828A1FC
:1041300002260022534620462946FCF7CEF90022EB
:104140003B46FCF723F980460F46002253462046A3
:104150002946FCF7BCF942463B46FCF730FA0446D8
:104160000D4608E0032622462B4600203B49FCF77B
:1041700026FA04460D4622462B4610461946FCF701
:10418000ACF98B46824602460B46FCF7A6F9074679
:104190000246334888460B4606217844FFF708F963
:1041A00052465B46FCF799F982462E488B463A46C2
:1041B000434605217844FFF7FBF83A464346FCF7AF
:1041C0008CF902460B46002E504659460CDAFCF795
:1041D000DDF822462B46FCF780F901B022462B463B
:1041E000BDE8F04FFCF776B9FCF7D0F822462B4635
:1041F000FCF773F91C4A7A4402EBC603D3E90023A7
:10420000FCF765F922462B46FCF761F9174A7A4418
:1042100002EBC603D3E90023FCF75CF9009A002AFD
:10422000B8BF81F00041BDE8F88F000000001044E5
:104230000000F07F182D4454FB21F93FFB21F9BF0A
:104240000000DC3F0000203E0000F33F0000F03F94
:104250000000E63F008003400000F83F0000F0BF90
:10426000DA3200009832000036320000FE310000E1
:104270002DE9F04D9446CCF1000423F000464CEAC1
:104280000404524F46EAD4749A46884621F000420C
:10429000BC4206D8454240EA050442EAD474BC4216
:1042A00004D9BDE8F04D6246FFF7DAB8AAF14055EF
:1042B000A5F17F6555EA0C040BD0022404EAAA7428
:1042C000434DDFF810E144EAD87452EA000B04D001
:1042D0000CE0BDE8F04DFFF7BBBE002C14BF012C75
:1042E000BDE8F08D022C30D0032C32D056EA0C0BF6
:1042F0000AD0BE4220D1BA4209D126F0804622F02F
:1043000080423346114617E000291ADB25E0DFF82A
:10431000C8B0FB44002C04BFDBE90001BDE8F08D10
:10432000012C02BFDBE9000181F00041BDE8F08D06
:10433000022C0AD0032C0CD0BA4212D1B8F1000FD3
:104340000BDA23482549BDE8F08D28462449BDE80D
:10435000F08D28467146BDE8F08D1D482149BDE825
:10436000F08D921B12153C2AC4BF19481D490EDC62
:10437000BAF1000FBEBF12F13C0F0020014606DB70
:104380006246FCF71CF921F00041FFF761FE002CAA
:1043900008BFBDE8F08D012C04BF81F00041BDE8ED
:1043A000F08D114A114B022C07D0FCF790F82A46E9
:1043B000BDE8F04D0A4BFCF78AB8FCF788F82A46AE
:1043C000BDE8F04D064BFCF785B800000000F07F1B
:1043D000182D4454FB2109C092310000FB21F9BF84
:1043E000FB210940FB21F93F075C143326A6A13CC1
:1043F00008B560B120208DF8000028208DF801005C
:1044000030208DF8020038208DF8030004E0A3224C
:1044100004216846FBF7C7FE6A46042140F69E2049
:1044200001F01AFF01F0D8FB08BD00003EB50446BC
:1044300002208DF80000CA208DF80100E3208DF8DD
:10444000020009208DF803006A460421682001F06B
:1044500003FFA3208DF80000610609D5C0218DF867
:104460000110C8218DF80210C2218DF8031005E05B
:104470008DF801008DF802008DF8030014F4C07F60
:1044800009D0C4218DF80410CC218DF80510C62167
:104490008DF8061005E08DF804008DF805008DF804
:1044A00006008DF808008DF807008DF809006A46AF
:1044B0000A2140F6A72001F0CFFEA0074FF0D80553
:1044C00003D020208DF8000001E08DF800506A46EE
:1044D000012140F6B62001F0BFFEA00601D5012063
:1044E00000E0002000F08EF814F4C07F1ED0E0053C
:1044F0000AD5B2208DF800008B208DF80100B6207F
:104500008DF802009B2009E0B0208DF8000080208B
:104510008DF80100B4208DF8020090208DF8030082
:104520006A46042140F6A22001F096FEE1074FF40E
:104530000B6022D0F8218DF800106A46012101F0AD
:104540008BFEFA21072000F0D9FC072000F0A4FC24
:10455000012000F0C1FC642000F064FD4FF4FA700B
:1045600000F070FDC821254800F05EFC282000F016
:1045700073FC0A2000F080FC05E08DF800506A46CC
:10458000012101F069FEA00703D5D9208DF80000B4
:1045900001E08DF800506A46012140F23D7001F0C3
:1045A0005BFE600701D5012000E0002000F048F824
:1045B000E00601D5012000E00020FFF719FF104DB3
:1045C00044F00800688101F007FB0020A873600632
:1045D00001D50620A87314F4C07F02D0A87B801DEB
:1045E000A87314F0140F02D0A87B1030A873A00792
:1045F00002D0A87B001DA87300203EBD09E3CA02BB
:10460000900200200EB54FF4976310B106A107C9C0
:1046100001E008A207CA8DE807006A46092118468A
:1046200001F01AFE0EBD0000B8AAB38DB4980D3586
:104630005D000000B8AAAAAAB088C3C5C7000000E0
:1046400008B560B1C0208DF80000C2208DF80100CF
:10465000C4208DF80200C6208DF8030004E08B22F0
:1046600004216846FBF79FFD6A46042140F6982026
:1046700001F0F2FD01F0B0FA08BD00003EB54FF4C4
:104680007A74CDE900320A460146029401230248B9
:10469000FCF71EFD3EBD0000E40000203EB54FF4D7
:1046A000FA74CDE900320A46014602940123024819
:1046B000FCF736FE3EBD0000E4000020F8B5002007
:1046C00000906B4601227521D120FFF7D7FF5CA037
:1046D000FEF73AFE63A0FEF737FE9DF8001062A0D9
:1046E000FEF732FE5FA0FEF72FFE9DF8000068285F
:1046F0000CD0BFF34F8F62480168624A01F4E06159
:1047000011430160BFF34F8F00BFFDE701F082F856
:1047100000287CD1782001F043FD10B948A0FEF7B5
:1047200013FE50A0FEF710FE782000F0A5FF10B990
:1047300055A0FEF709FE4BA0FEF706FE4FF47A7572
:10474000284601F0EDFC10B959A0FEF7FDFD45A08B
:10475000FEF7FAFD00F032F910B95FA0FEF7F4FDA4
:1047600040A0FEF7F1FD6948044600F0DBFE064676
:10477000E01C00F0D7FE46EAC006A01D00F0D2FE05
:1047800046EA801080B200F0C9FA10B960A0FEF7C6
:10479000DBFD34A0FEF7D8FD40F27310FFF746FEB4
:1047A00010B965A0FEF7D0FD2EA0FEF7CDFD28467E
:1047B00000F01CFA10B96AA0FEF7C6FD29A0FEF7AA
:1047C000C3FD01F06FFE012001F0D0FB10B96DA018
:1047D000FEF7BAFD74A0FEF7B7FDC820FCF7A6FAF5
:1047E0007348FEF7B1FDC820FCF7A0FA7048FEF749
:1047F000ABFDC820FCF79AFA6D48FEF7A5FDC8206E
:10480000FCF794FA68A0FEF79FFDC82000E016E0D0
:10481000FCF78CFA6748FEF797FDC820FCF786FA8C
:104820006548FEF791FDC820FCF780FA6248FEF764
:104830008BFDC820FCF77AFA5BA0FEF785FDF8BD7A
:104840006D70755F7365745F73656E736F722063EF
:104850006F6D706C657465202E2E2E2E2E2E0D0A17
:10486000000000000D0A00004465766963655F4939
:10487000443A20202020307825780D0A00000000DE
:104880000CED00E00400FA056D70755F636F6E66F5
:1048900069677572655F6669666F20636F6D706CBE
:1048A000657465202E2E2E2E2E2E0D0A000000007F
:1048B0006D70755F7365745F73616D706C655F7249
:1048C00061746520636F6D706C657465202E2E2E8B
:1048D0002E2E2E0D0A000000646D705F6C6F6164F7
:1048E0005F6D6F74696F6E5F6472697665725F6623
:1048F00069726D7761726520636F6D706C65746548
:10490000202E2E2E2E2E2E0D0A000000C600002076
:10491000646D705F7365745F6F7269656E746174E6
:10492000696F6E20636F6D706C657465202E2E2E1E
:104930002E2E2E0D0A000000646D705F656E6162A0
:104940006C655F6665617475726520636F6D706C10
:10495000657465202E2E2E2E2E2E0D0A00000000CE
:10496000646D705F7365745F6669666F5F726174B2
:104970006520636F6D706C657465202E2E2E2E2E53
:104980002E0D0A006D70755F7365745F646D705FE6
:10499000737461746520636F6D706C657465202E2F
:1049A0002E2E2E2E2E0D0A000D0A0D0A0D0A0000C5
:1049B000CC7500088875000844750008C8234FF4BA
:1049C0008062024940F6F63000F0E8BFC467000894
:1049D0002DE9FF4F89B01746DDE9165200244C4EF1
:1049E000884681462C80A246B07B694601F082F859
:1049F0004FF0FF3B18B158460DB0BDE8F08F7089FD
:104A000010F0140F3CD0009909BA21F0FF039DF873
:104A100003100B433B6001991B1409BA21F0FF02FC
:104A20009DF807105B430A437A6002999DF80B409A
:104A300009BA21F0FF012143B960039C091424BA8B
:104A400024F0FF0C9DF80F4012144CEA040CC7F838
:104A50000CC04FEA2C47494302FB023207FB071107
:104A600011441024A1F17061B1F1007F04D901F06B
:104A7000B3F8A5F800A0BEE7298841F48071298029
:104A80004206694611D50A19A41D13885BBAA8F815
:104A9000003053885BBAA8F80230928852BAA8F85E
:104AA00004202A8842F008022A8010F4C07F11D026
:104AB0000A19A41D13885BBAA9F8003053885BBAA1
:104AC000A9F80230928852BAA9F804202A8842F044
:104AD00070022A80800716D00C44E07800F0C005F0
:104AE00000F03F016078C00706D0C80801F0070158
:104AF0003268491C02B190476078000703D571689D
:104B000009B1A80988470C9800F0ACFA002073E7B7
:104B1000900200202DE9FF41044603A800F0F4FDB7
:104B2000BDF80C00410CC3032F48028902F00300BA
:104B3000550754F8200000D54042C2F3C10596063F
:104B400054F8255000D56D42C2F38116D20554F8B1
:104B5000264000D56442A0FB0367C21702FB037224
:104B600000FB0120820042EA9670A5FB0367EA176A
:104B700002FB037205FB0122950045EA9672A4FB35
:104B80000367E51705FB037304FB01318B0043EA60
:104B90009671030E8DF80030030C8DF80130030A76
:104BA0008DF802308DF80300100E8DF80400100C03
:104BB0008DF80500100A8DF80600080E8DF8080023
:104BC000080C8DF80900080A8DF80A008DF80720F6
:104BD0008DF80B106A460C214FF4257001F03CFB58
:104BE00004B0BDE8F08100009002002030B504461A
:104BF00013A285B007CA8DE807004FF0FF35C82C17
:104C000016D8C820B0FBF4F1491E080A8DF80C0034
:104C10008DF80D1003AA022140F2162001F01CFBB2
:104C200030B96A460C2140F6C12001F015FB10B1E5
:104C3000284605B030BD054884810020F9E7000012
:104C4000FEF2ABC4AAF1DFDFBBAFDFDF90020020D2
:104C5000F8B53049098901F0030250F822404A07AB
:104C600000D56442C1F3C1028B0650F8222000D562
:104C70005242C1F3811350F82330C80500D55B427E
:104C8000254984FB0140850045EA947082FB01427E
:104C9000A40F44EA820483FB0121950F45EA8105B4
:104CA000010E8DF80010010C8DF80110010A8DF82D
:104CB00002108DF803006A4604214FF4747001F06D
:104CC000CBFA4FF0FF3688B9200E8DF80000200C8B
:104CD0008DF80100200A8DF802008DF803406A4625
:104CE00004214FF4757001F0B7FA08B13046F8BDF1
:104CF000280E8DF80000280C8DF80100280A8DF888
:104D000002008DF803506A4604214FF4767001F0DA
:104D1000A3FAF8BD9002002009E3CA022DE9FF4181
:104D200004463CA004F00303006802903AA0006827
:104D300003903AA006683AA0056802A8C15C8DF805
:104D40000010C4F3C101425C8DF80120C4F381124C
:104D5000805C8DF8020003A8C35C8DF80430415CD0
:104D60008DF80510805C8DF806006A46032140F23C
:104D7000264001F071FA4FF0FF37E0BB01AA032192
:104D800040F22A4001F068FAA8BBCDE9006560074F
:104D90000BD59DF8000040F001008DF800009DF853
:104DA000040040F001008DF80400A0060BD59DF82A
:104DB000010040F001008DF801009DF8050040F071
:104DC00001008DF80500E0050BD59DF8020040F0CC
:104DD00001008DF802009DF8060040F001008DF8FA
:104DE00006006A4603214FF4886001F035FA10B9D5
:104DF00001AA032100E004E040F2314001F02CFA66
:104E000018B1384604B0BDE8F0810648048100209E
:104E1000F8E700004CCD6C000CC92C00365676002B
:104E200026466600900200204FF47A7290FBF2F062
:104E300008B54843010E8DF80010010C8DF80110E3
:104E4000010A8DF802108DF803006A4604214FF420
:104E5000AE7001F001FA08BD0521B0FBF1F008B514
:104E6000010A8DF800108DF801006A4602214FF406
:104E7000AD7001F0F1F908BD0521B0FBF1F008B506
:104E8000010A8DF800108DF801006A4602214FF4E6
:104E9000AC7001F0E1F908BD08B500218DF80010F3
:104EA000C10702D030218DF80010810705D59DF88B
:104EB000001041F00C018DF80010400705D59DF859
:104EC000000040F003008DF800006A4601214FF415
:104ED000A47001F0C1F908BD08B560B1042800D97B
:104EE0000420401E8DF800006A46012140F24F1058
:104EF00001F0B2F908BD0120F3E700002DE9FC4103
:104F0000054640074FF0FF367CD0B1F5C86F79D821
:104F10000846FBF7CCFB3E49FBF7EEF9074601A834
:104F200000F0D4FB9DF80400022806D004280DD020
:104F300008282ED0102865D134E00E213846FBF722
:104F400019FAFBF7E3FB84B2324907E00D2138463A
:104F5000FBF710FAFBF7DAFB2F4984B23846FBF770
:104F600099F9FBF7D3FB210A8DF8001080B28DF878
:104F70000140010A8DF802108DF80300E8076C4625
:104F800020D0224602214FF4EA7001F065F9C8BB37
:104F900011E00C213846FBF7EDF9FBF7B7FB84B2C3
:104FA0001E49DBE70B213846FBF7E4F9FBF7AEFBC4
:104FB00084B21B49D2E7A21C02214FF4927001F087
:104FC0004BF9F8B9A8070DD56A4602214FF4EC70E9
:104FD00001F042F9B0B9A21C02214FF4947001F023
:104FE0003BF978B9680710D56A4602214FF4EE7094
:104FF00001F032F930B9A21C02214FF4967001F091
:105000002BF910B13046BDE8FC810020FBE7000021
:1050100000004843000040460000C04500004045F5
:105020000000C0440521B0FBF1F008B5010A8DF87D
:1050300000108DF801006A4602214FF4EF7001F074
:105040000BF908BD0521B0FBF1F008B5010A8DF898
:1050500000108DF801006A4602214FF4ED7001F056
:10506000FBF808BD10B50446FBF768FF206010BDD3
:1050700038B504468DF800004FF6FF7301226946EB
:105080000248FDF733FB204638BD000050020020E7
:105090002DE9FE430646264801AB042240680D2157
:1050A0000078FFF7EBFA10B10720BDE8FE839DF80A
:1050B00004101C2000EAD1029DF80710DFF874905C
:1050C000C1F301131A438DF800209DF80520C1F3A8
:1050D000810300EAD2021A438DF801209DF80620D0
:1050E00001F0030100EAD20008430024124F8DF8BA
:1050F0000200A0466D46285D10B146F824900AE0F3
:1051000046F824800DE000BF56F824003946FBF72E
:10511000C1F846F82400285D401E10F0FF00285515
:10512000F2D1641CE4B2032CE5D30020BDE70000FB
:10513000900000207B14AE3E1D5A843F2DE9FE4FA7
:1051400005460120C14E8DF800004FF000088DF893
:10515000018030680C461746417D70686B4602221C
:105160000078FFF79BFA4FF0FF3A00287AD1C82069
:1051700001F09CF88DF8008030686B460122417C7C
:1051800070680078FFF78AFA0028EFD130686B4624
:105190000122417970680078FFF780FA0028E5D194
:1051A00030686B460122417D70680078FFF776FA1F
:1051B0000028DBD130686B460122817E7068007860
:1051C000FFF76CFA0028D1D130686B4601220179D3
:1051D00070680078FFF762FA0028C7D14FF00C0919
:1051E0008DF8009030686B46012201797068007874
:1051F000FFF754FA002835D10F2001F057F8B06AB4
:105200006B460122407A8DF8000030688178706822
:105210000078FFF743FA002824D1B06A6B460122D8
:10522000007A8DF800003068417870680078FFF7E8
:1052300035FA002873D1B06A807A0FB140F0E000EF
:105240008DF8000030686B46012281797068007823
:10525000FFF724FA002862D12FB1B06AC07A40F07B
:10526000E00001E04AE018208DF8000030686B464D
:105270000122C17970680078FFF710FAF0BB17B10E
:10528000C82001F013F840208DF8000030686B460C
:105290000122017970680078FFF700FA70BB78206E
:1052A0008DF8000030686B46012241797068007803
:1052B000FFF7F4F910BB322000F0F8FF8DF8008002
:1052C000306847466B464179706801220078FFF7E5
:1052D000E5F998B931687068B046097B00786B468B
:1052E0000222FFF7CBF948B9BDF80000AF6040BA21
:1052F000B0FBF9F06F60C6B22F6000E00FE0A7606E
:1053000067602760002739E0D8F80010D8F804005B
:105310006B46497B00780C22FFF7B0F910B150467C
:10532000BDE8FE8FBDF80000236840BA02B2BDF8A8
:105330000200BDF804101A44226040BA626800B24C
:105340001044606049BAA06809B20844A060BDF882
:1053500006002B6840BA02B2BDF808001A4440BAF1
:1053600001B2BDF80A002A606A6840BA1144696057
:10537000A96800B208447F1CFFB2A860B742C3D33B
:1053800028688322C117090441EA10410004002360
:10539000FAF7C8FE32460023FAF7C4FE28606868B0
:1053A0008322C117090441EA104100040023FAF7DF
:1053B000B9FE32460023FAF7B5FE6860A86883227A
:1053C000C117090441EA104100040023FAF7AAFEBC
:1053D00032460023FAF7A6FEA86020684FF4006565
:1053E000C117090441EA104100042A460023FAF7D4
:1053F00099FE32460023FAF795FE206060682A463F
:10540000C117090441EA104100040023FAF78AFE9B
:1054100032460023FAF786FE6060A0682A46C1176C
:10542000090441EA104100040023FAF77BFE3246EA
:105430000023FAF777FEA060002802DDA0F5803097
:1054400001E000F58030A060002069E790000020B6
:105450002DE9F84F81462E488846002540686B4666
:10546000032200780D21FFF709F910B10720BDE8EC
:10547000F88F9DF80000002400F01F008DF8000058
:105480009DF801006FF00F0B00F01F008DF8010078
:105490009DF802006E4600F01F008DF802004FF0EC
:1054A000010A00BF59F8241058F82400081A00D542
:1054B0004042FBF7F3F85946FAF75CFF0746305DC8
:1054C000C0B1144802E01449FAF7E4FE315D491E08
:1054D00011F0FF013155F6D101463846FAF70CFFBD
:1054E0004FF07E51FAF7D0FE0C4920F00040884280
:1054F00005DC07E00A483844B0F1D97F02D90AFA3E
:1055000004F00543641C032CCCDB2846AFE7000005
:10551000900000200000C84154E3853F295C0F3E05
:105520000000E0BE90F90010002902DD4FF00000FD
:10553000704702DA4FF00400704790F9011000291B
:1055400002DD4FF00100704702DA4FF005007047AE
:1055500090F90200002802DD4FF00200704702DAE5
:105560004FF0060070474FF007007047FBF7B0FFA1
:10557000FDF7AEFCFDF7FCFAFDF794FBFDF76AFCC6
:10558000FDF784FCFDF7FAFBFDF73AFBFDF758FB4E
:10559000052222492248FDF731F800212148FCF775
:1055A0007DFD00212048FCF779FD20482049024676
:1055B0000B46FBF7CDFA4FF4FA7608E001F016F847
:1055C00001461CA0FDF7C0FE3046FBF7AFFB01F023
:1055D0000DF80028F2D1FFF771F81B4F1B4C002586
:1055E000194800F091FE3868FBF7C3F8D4E910239E
:1055F000FAF7CCFEC4E910010220FBF797FB6D1C03
:10560000B542EDDBD4E910010022114BFAF7D7FFC8
:10561000C4E910010F48FCF7FBFAFEE7D8000020B0
:105620001002002080010020C80100202D431CEB47
:10563000E2361A3F30782578202849445F45525297
:105640004F52290D0A000000B00200200000002087
:1056500000407F40380100202DE9F04114461D46EE
:1056600006460F46FBF7B0F803D230463946BDE890
:10567000F08120462946FAE72DE9F041124C20F04E
:105680000101002594F8240010B10020BDE8F0814C
:10569000A07A4FF0FF3668B10840277C207488421A
:1056A00000D0354641B1012000F04EFF00F094FAE1
:1056B00038B127743046E9E7207D00B1012000F0C1
:1056C00043FF2846E2E70000900000200D494A7A97
:1056D00042B1012A08D0022A0FD0032A0FD04FF07E
:1056E000FF307047022200E004220270C97C11B131
:1056F0001106C90D0170002070470822F5E710223D
:10570000F3E70000900000200F494A7A42B1012AD5
:1057100009D0022A11D0032A12D04FF0FF3070476F
:105720004FF4804201E041F69C720280C97C11B1C5
:10573000C2F34E010180002070474FF48052F4E71D
:105740004FF40062F1E70000900000200B49097A55
:1057500039B1012907D002290AD003290BD0002131
:1057600003E0FA2101E04FF4FA7101800020704754
:105770004FF47A71F9E74FF4FA61F6E790000020F0
:105780000A49097A41B1012908D002290AD003291E
:105790000AD04FF0FF307047054900E0054901602D
:1057A000002070470449FAE70449F8E79000002018
:1057B0000000034300008342333303423333834109
:1057C0000C49C97A072913D2DFE801F01204060A4E
:1057D0000C0E1000BC2100E0622101800020704707
:1057E0002A21FAE71421F8E70A21F6E70521F4E770
:1057F0000021F2E790000020054991F8242012B121
:105800004FF0FF307047C9890180002070470000C9
:10581000900000202DE9FC414C4C80208DF80000C8
:1058200020686B460122417D60680078FEF736FFF4
:105830004FF0FF37002832D1642000F037FD0025FB
:105840008DF8005020686B460122417D6068007829
:10585000FEF724FF002870D120686B460622417EA7
:1058600060680078FEF70AFF002866D19DF8050001
:105870009DF80310C007400F01F0010140EA41010B
:105880009DF801004FF0010600F00100014309D02E
:10589000012905D0022915D02DA0FDF755FD4CE0BA
:1058A000E67410E020686B460122C17860680078D9
:1058B000FEF7E4FE40BB9DF8000010F00F0020D082
:1058C000042822D0E574FF2004F80A0F4FF6FF7178
:1058D00004F8020C04F8010C6070A180A071207221
:1058E000A67026766576E572A572E560256165612C
:1058F000A576E576A5834FF4FA6000F073FB18B93E
:1059000007E01D48FDF720FD17E01CA0FDF71CFD7A
:10591000C6E7022000F088FA78B92A2000F0CAFB16
:1059200058B9322000F0FCFB38B90020FFF7A4FE84
:1059300018B9002000F0ACFA10B13846BDE8FC817F
:10594000002000F02DFC0020F8E70000900000206F
:10595000556E737570706F7274656420736F6674C2
:10596000776172652070726F6475637420726576FA
:105970002025642E0A000000F474000848616C665B
:105980002073656E736974697669747920706172C9
:105990007420666F756E642E0A0000002DE9FF4FBB
:1059A000DFF89480064685B098F8250015460F4626
:1059B0004FF0FF39B0BBAFB3002420E0301B1028FC
:1059C00000DD102080B283463A19014692462046F7
:1059D00000F042FC30BB6A465946204600F0D2F83F
:1059E00000BB50465A466946FAF7EFFB20B16FF00C
:1059F000010009B0BDE8F08F04EB0B0084B2B442A3
:105A0000DCD3280A8DF810008DF81150D8F800006A
:105A1000444604AB417FD8F8040002220078FEF728
:105A20003DFE08B14846E4E7012084F825000898C7
:105A3000E0840020DDE70000900000202DE9F8431D
:105A400005464FF0FF39282844D80727284C002660
:105A50007DB1012000F0FCFA20208DF800004FF00D
:105A60000108012D17D0052D18D88DF801800520CB
:105A70001FE0002000F0ECFA8DF800608DF8017056
:105A800020686B460222417D60680078FEF706FEC2
:105A900000BB267529E08DF80160E8E7142D04D8D5
:105AA00002208DF801000A2003E003208DF8010098
:105AB000142000F0FFFA9DF801006B4607EB801000
:105AC0008DF8010020680222417D60680078FEF7B1
:105AD000E5FD10B14846BDE8F8830820A0722673A2
